{
  "_format": "hh-sol-artifact-1",
  "contractName": "photo",
  "sourceName": "contracts/photo.sol",
  "abi": [
    {
      "inputs": [],
      "stateMutability": "payable",
      "type": "constructor"
    },
    {
      "inputs": [
        {
          "internalType": "string",
          "name": "name",
          "type": "string"
        },
        {
          "internalType": "string",
          "name": "message",
          "type": "string"
        }
      ],
      "name": "addFunds",
      "outputs": [],
      "stateMutability": "payable",
      "type": "function"
    },
    {
      "inputs": [],
      "name": "getMemos",
      "outputs": [
        {
          "components": [
            {
              "internalType": "string",
              "name": "name",
              "type": "string"
            },
            {
              "internalType": "string",
              "name": "message",
              "type": "string"
            },
            {
              "internalType": "uint256",
              "name": "timestamp",
              "type": "uint256"
            },
            {
              "internalType": "address",
              "name": "from",
              "type": "address"
            }
          ],
          "internalType": "struct photo.Memo[]",
          "name": "",
          "type": "tuple[]"
        }
      ],
      "stateMutability": "view",
      "type": "function"
    },
    {
      "inputs": [
        {
          "internalType": "string",
          "name": "name",
          "type": "string"
        },
        {
          "internalType": "string",
          "name": "message",
          "type": "string"
        }
      ],
      "name": "sellPhoto",
      "outputs": [],
      "stateMutability": "nonpayable",
      "type": "function"
    }
  ],
  "bytecode": "0x608060405273e88f75c28545011db58e49867ef901ec0d01a6a3600160006101000a81548173ffffffffffffffffffffffffffffffffffffffff021916908373ffffffffffffffffffffffffffffffffffffffff16021790555033600260006101000a81548173ffffffffffffffffffffffffffffffffffffffff021916908373ffffffffffffffffffffffffffffffffffffffff160217905550610c89806100a96000396000f3fe6080604052600436106100345760003560e01c80632c2cfe56146100395780635640cab014610062578063865c51721461007e575b600080fd5b34801561004557600080fd5b50610060600480360381019061005b919061068d565b6100a9565b005b61007c6004803603810190610077919061068d565b610272565b005b34801561008a57600080fd5b5061009361043b565b6040516100a09190610924565b60405180910390f35b6000339050600066038d7ea4c6800090508173ffffffffffffffffffffffffffffffffffffffff166108fc829081150290604051600060405180830381858888f19350505050158015610100573d6000803e3d6000fd5b506000604051806080016040528088888080601f016020809104026020016040519081016040528093929190818152602001838380828437600081840152601f19601f82011690508083019250505050505050815260200186868080601f016020809104026020016040519081016040528093929190818152602001838380828437600081840152601f19601f8201169050808301925050505050505081526020014281526020013373ffffffffffffffffffffffffffffffffffffffff16815250908060018154018082558091505060019003906000526020600020906004020160009091909190915060008201518160000190816102009190610b81565b5060208201518160010190816102169190610b81565b506040820151816002015560608201518160030160006101000a81548173ffffffffffffffffffffffffffffffffffffffff021916908373ffffffffffffffffffffffffffffffffffffffff1602179055505050505050505050565b600160009054906101000a900473ffffffffffffffffffffffffffffffffffffffff1673ffffffffffffffffffffffffffffffffffffffff163373ffffffffffffffffffffffffffffffffffffffff16146102cc57600080fd5b6000604051806080016040528086868080601f016020809104026020016040519081016040528093929190818152602001838380828437600081840152601f19601f82011690508083019250505050505050815260200184848080601f016020809104026020016040519081016040528093929190818152602001838380828437600081840152601f19601f8201169050808301925050505050505081526020014281526020013373ffffffffffffffffffffffffffffffffffffffff16815250908060018154018082558091505060019003906000526020600020906004020160009091909190915060008201518160000190816103cb9190610b81565b5060208201518160010190816103e19190610b81565b506040820151816002015560608201518160030160006101000a81548173ffffffffffffffffffffffffffffffffffffffff021916908373ffffffffffffffffffffffffffffffffffffffff160217905550505050505050565b60606000805480602002602001604051908101604052809291908181526020016000905b828210156106155783829060005260206000209060040201604051806080016040529081600082018054610492906109a4565b80601f01602080910402602001604051908101604052809291908181526020018280546104be906109a4565b801561050b5780601f106104e05761010080835404028352916020019161050b565b820191906000526020600020905b8154815290600101906020018083116104ee57829003601f168201915b50505050508152602001600182018054610524906109a4565b80601f0160208091040260200160405190810160405280929190818152602001828054610550906109a4565b801561059d5780601f106105725761010080835404028352916020019161059d565b820191906000526020600020905b81548152906001019060200180831161058057829003601f168201915b50505050508152602001600282015481526020016003820160009054906101000a900473ffffffffffffffffffffffffffffffffffffffff1673ffffffffffffffffffffffffffffffffffffffff1673ffffffffffffffffffffffffffffffffffffffff16815250508152602001906001019061045f565b50505050905090565b600080fd5b600080fd5b600080fd5b600080fd5b600080fd5b60008083601f84011261064d5761064c610628565b5b8235905067ffffffffffffffff81111561066a5761066961062d565b5b60208301915083600182028301111561068657610685610632565b5b9250929050565b600080600080604085870312156106a7576106a661061e565b5b600085013567ffffffffffffffff8111156106c5576106c4610623565b5b6106d187828801610637565b9450945050602085013567ffffffffffffffff8111156106f4576106f3610623565b5b61070087828801610637565b925092505092959194509250565b600081519050919050565b600082825260208201905092915050565b6000819050602082019050919050565b600081519050919050565b600082825260208201905092915050565b60005b83811015610774578082015181840152602081019050610759565b60008484015250505050565b6000601f19601f8301169050919050565b600061079c8261073a565b6107a68185610745565b93506107b6818560208601610756565b6107bf81610780565b840191505092915050565b6000819050919050565b6107dd816107ca565b82525050565b600073ffffffffffffffffffffffffffffffffffffffff82169050919050565b600061080e826107e3565b9050919050565b61081e81610803565b82525050565b600060808301600083015184820360008601526108418282610791565b9150506020830151848203602086015261085b8282610791565b915050604083015161087060408601826107d4565b5060608301516108836060860182610815565b508091505092915050565b600061089a8383610824565b905092915050565b6000602082019050919050565b60006108ba8261070e565b6108c48185610719565b9350836020820285016108d68561072a565b8060005b8581101561091257848403895281516108f3858261088e565b94506108fe836108a2565b925060208a019950506001810190506108da565b50829750879550505050505092915050565b6000602082019050818103600083015261093e81846108af565b905092915050565b7f4e487b7100000000000000000000000000000000000000000000000000000000600052604160045260246000fd5b7f4e487b7100000000000000000000000000000000000000000000000000000000600052602260045260246000fd5b600060028204905060018216806109bc57607f821691505b6020821081036109cf576109ce610975565b5b50919050565b60008190508160005260206000209050919050565b60006020601f8301049050919050565b600082821b905092915050565b600060088302610a377fffffffffffffffffffffffffffffffffffffffffffffffffffffffffffffffff826109fa565b610a4186836109fa565b95508019841693508086168417925050509392505050565b6000819050919050565b6000610a7e610a79610a74846107ca565b610a59565b6107ca565b9050919050565b6000819050919050565b610a9883610a63565b610aac610aa482610a85565b848454610a07565b825550505050565b600090565b610ac1610ab4565b610acc818484610a8f565b505050565b5b81811015610af057610ae5600082610ab9565b600181019050610ad2565b5050565b601f821115610b3557610b06816109d5565b610b0f846109ea565b81016020851015610b1e578190505b610b32610b2a856109ea565b830182610ad1565b50505b505050565b600082821c905092915050565b6000610b5860001984600802610b3a565b1980831691505092915050565b6000610b718383610b47565b9150826002028217905092915050565b610b8a8261073a565b67ffffffffffffffff811115610ba357610ba2610946565b5b610bad82546109a4565b610bb8828285610af4565b600060209050601f831160018114610beb5760008415610bd9578287015190505b610be38582610b65565b865550610c4b565b601f198416610bf9866109d5565b60005b82811015610c2157848901518255600182019150602085019450602081019050610bfc565b86831015610c3e5784890151610c3a601f891682610b47565b8355505b6001600288020188555050505b50505050505056fea26469706673582212201018a33d56e78894ac8efb6cf1651b7ab1576e7188b85c80e0baf5f7efd746c164736f6c63430008110033",
  "linkReferences": {},
  "deployedLinkReferences": {}
}